:020000040000FA
:10000000900A0020451100006B3D00009510000093
:10001000951000009510000095100000951000004C
:10002000951000009510000095100000850F00004D
:100030009510000095100000310F00006D3C00008D
:100040000511000005110000051100000511000058
:100050000511000005110000051100000511000048
:100060000511000005110000051100000511000038
:100070000511000005110000051100000511000028
:100080000511000005110000051100000511000018
:100090000511000005110000051100000511000008
:1000A00005110000051100000511000005110000F8
:1000B00005110000051100000511000005110000E8
:1000C00005110000051100000511000005110000D8
:1000D00005110000051100000511000005110000C8
:1000E00005110000051100000511000005110000B8
:1000F00005110000051100000511000005110000A8
:100100000511000005110000051100000511000097
:100110000511000005110000051100000511000087
:100120000511000005110000051100000511000077
:100130000511000005110000051100000511000067
:100140000511000000000000000000000000000099
:10015000000000000000000000000000000000009F
:10016000000000000000000000000000000000008F
:10017000000000000000000000000000000000007F
:10018000000000000000000000000000000000006F
:10019000000000000000000000000000000000005F
:1001A000000000000000000000000000000000004F
:1001B000000000000000000000000000000000003F
:1001C000000000000000000000000000000000002F
:1001D000000000000000000000000000000000001F
:1001E000000000000000000000000000000000000F
:1001F00000000000000000000000000000000000FF
:10020000DEE61E284CBBCE8F025B00003C000000E7
:10021000008000000100000000000000000000005D
:10022000FFFF02910000000000000000000000003D
:1002300000000000000000000000000053B94AB9AF
:10024000002908BF00281CBF4FF0FF314FF0FF30DE
:1002500000F07CB9ADF1080C6DE904CE00F006F8B1
:10026000DDF804E0DDE9022304B070472DE9F04732
:100270008C46089D04468A46002B4AD18A4217467E
:1002800062D9B2FA82F64EB1C6F1200E01FA06F337
:10029000B740B44020FA0EFE4EEA030A4FEA174870
:1002A000230C1FFA87F9BAFBF8FE08FB1EAA0EFB07
:1002B00009F243EA0A439A420BD9FB180EF1FF31C7
:1002C0002CBF012000209A4202D9002800F02A8188
:1002D0008E469A1AA3B2B2FBF8F008FB102200FB7C
:1002E00009F943EA0244A14507D93C1900F1FF335B
:1002F00002D2A14500F210811846A4EB090440EA9D
:100300000E4000211DB1F4400023C5E90043BDE8C3
:10031000F0878B4208D9002D00F0F2800021C5E95A
:10032000000C0846BDE8F087B3FA83F100294ED1EE
:100330006345C0F0E880824240F2E5800846002D27
:10034000E5D0C5E9004AE2E702B9FFDEB2FA82F67B
:10035000002E40F099808B1A4FEA124E1FFA82F855
:1003600001214FEA144CB3FBFEF20EFB123008FBE6
:1003700002F94CEA004CE14508D917EB0C0C02F1EC
:10038000FF3302D2E14500F2CA801A46ACEB090CF9
:10039000A3B2BCFBFEF00EFB10CC08FB00F843EA56
:1003A0000C44A0450ED93C1900F1FF332CBF4FF08F
:1003B000010C4FF0000CA04503D9BCF1000F00F078
:1003C000A8801846A4EB080440EA02409AE7C1F16D
:1003D00020048B4002FA01FE0CFA01F6E24020FAFA
:1003E00004F72CFA04FC00FA01F813433E431F0CF7
:1003F000320C1FFA83F9BCFBF7F007FB10CC00FBB3
:1004000009FA42EA0C4CE24508D913EB0C0C00F156
:10041000FF3202D2E24500F289801046ACEB0A0CB2
:10042000B6B2BCFBF7FA07FB1ACC0AFB09F946EA9D
:100430000C42914506D99A180AF1FF3601D291452E
:100440007AD8B2464AEA0040A2EB0902A0FB0E6746
:10045000BA42B446B94602D307D1B04505D2B6EB8D
:100460000E0C67EB030301389946002D6BD0B8EBF7
:100470000C0362EB090202FA04F4CB40CA400021EB
:100480001C43C5E9004242E7B740C6F1200201FA29
:1004900006F3B44021FA02FC4FEA174E20FA02F2AA
:1004A0001FFA87F8BCFBFEF11A430EFB11CC01FBCF
:1004B00008F0130C43EA0C4C604507D917EB0C0C01
:1004C00001F1FF3301D2604533D81946ACEB000C83
:1004D00092B2BCFBFEF00EFB10CC00FB08F342EA2C
:1004E0000C4C634507D917EB0C0C00F1FF3201D21D
:1004F000634525D81046ACEB030340EA014130E7E1
:100500002946284603E7841A6CEB030301209A4628
:1005100015E702383C4455E702383C44EDE6023A20
:10052000BC4433E7AEF1020E3B44D2E602389C44B1
:1005300074E70239BC44C9E7AAF1020A1A4481E708
:100540000238BC44D7E72946E1E600BF704700BF48
:100550002DE9E04F2746A046A146A246A346A44661
:100560002DED108B4FF0000545EC185B45EC195A4A
:1005700045EC1A5A45EC1B5A45EC1C5A45EC1D5AE1
:1005800045EC1E5A45EC1F5AF1EE105A4FF66076B4
:10059000C0F6FF763540E1EE105A84F30088254618
:1005A0002646A447BDEC108BBDE8E08F0B680133F5
:1005B0000B60014B1B681847D01300202DE9F04F4A
:1005C00085B00E9C9B46012CB8BF0124012B0CBFAB
:1005D0003023202316468246884601250A2700221A
:1005E000DFF86C900293B6FBF9F301930AB9B145B9
:1005F0001CD8019B414603F13000D0470122013550
:10060000019B013F09FB13660A23012FB9FBF3F994
:10061000E9D1414606F13000D047BBF1030F02D1CA
:10062000641B002C0EDC05B0BDE8F08FBC42E7DB9C
:10063000BBF1020FE4D84146029803920135D0473E
:10064000039ADDE741462020D047013CE9E700BF9F
:1006500000CA9A3B014B1860704700BFD0130020BE
:10066000002313B502AC44F8043D02460B46034890
:10067000214603F070F802B010BD00BFAD050000C8
:100680004FF02002EFF3118382F31188BFF36F8FD5
:100690000121044AC2F8401583F31188BFF36F8F1C
:1006A00000207047009003500A2838B50446074DD3
:1006B00004D1286843680D215B689847286843681F
:1006C000E1B25B689847204638BD00BF08000020B3
:1006D00010B5044C204601F095F82046BDE81040C6
:1006E000FFF7B8BFA906000008B5044801F0AEFA4C
:1006F000034B1860FFF7ECFF002008BDD447000053
:100700000800002008B5114B1A686AB14FF050225A
:10071000D2F80423D10707D500220D481A60836858
:10072000597A09B903F0F2F90A4B1A686AB14FF025
:100730005022D2F80423920707D5002201211A6023
:100740000348BDE8084003F0E1B908BD005100507E
:10075000801400200451005000220D4BC3F84021AA
:100760004FF02002EFF3118182F31188BFF36F8FF6
:10077000084AD3F804051368C01A20F07F400344E8
:10078000136081F31188BFF36F8F02F031B800BF9F
:10079000005001502400002070B5154801F056FAB1
:1007A00010B3436801211B689847002401264FF4C9
:1007B00080334FF400120F4D3146C5F80845C5F897
:1007C0004065C5F804330C4B15201C600B4BC3F877
:1007D0008021224600F0F6FB152000F0E3FB2046C6
:1007E000074B1E602E6070BD4FF0FF30FBE700BF6F
:1007F000A9490000005001504051015000E100E0C3
:100800000850015070B5264EB0F1FF3F08BF30468A
:100810004FF02003EFF3118483F31188BFF36F8F40
:10082000204BD3F80455204B1B68EA1A22F07F4274
:10083000B2F5000F1AD2411E21EAE171B142A8BF00
:100840003146501C0844B04294BF18189819451BF3
:1008500025F07F45134A20F07F43022DC2F8403532
:1008600006D984F31188BFF36F8F70BD0021E8E7CC
:10087000D2F804350D49C31A23F07F435D1E8D4223
:1008800005D94FF400120A4BC3F80021E9E7012B08
:1008900002BF023020F07F40C2F84005E1E700BF10
:1008A000FEFFFF000050015024000020FEFF7F00EB
:1008B00000E100E04FF02002EFF3118382F3118892
:1008C000BFF36F8F064AD2F80405064A1268801AF1
:1008D00020F07F4083F31188BFF36F8F704700BF14
:1008E000005001502400002008B543B2002B0CDB5F
:1008F000012200F01F018A405B091049203341F8B2
:100900002320BFF34F8FBFF36F8F830003F1A0430A
:1009100003F540533128D3F8002806D0002A07DA1F
:1009200002F00302023A012A02D8054AC3F800285D
:10093000002103F0EBF9002008BD00BF00E100E05A
:100940000001008030B54FF440444CF2040585B0FE
:100950004FF440412C4803F076F821682B4803F00F
:1009600072F829682A4803F06EF8102200216846C0
:1009700003F096FA236868460093029400F0CCFED8
:10098000012000F0F9FE002000F0E2FE002000F05F
:1009900007FF0121002000F021FF00F015FF2C6867
:1009A0001C4803F050F80820FFF79EFF24F00104D4
:1009B000BFF34F8FBFF36F8F64086400204621465A
:1009C000224623469FED140ADFED130A9FED121A0B
:1009D000DFED111A9FED102ADFED0F2A9FED0E3A81
:1009E000DFED0D3A9FED0C4ADFED0B4A9FED0A5A01
:1009F000DFED095A9FED086ADFED076A9FED067A81
:100A0000DFED057AFFF7A4FD294900004049000009
:100A10005549000073490000000000002DE9F8432B
:100A20006E4803F010F80021DFF8FC816C4F6D4D2B
:100A300058F82140CA0301F5C07347F823406A48BB
:100A400002F500434E1C02F0FEFF684B14F0100F3D
:100A50006749684808BF194602F0F5FF14F0040F13
:100A600014BF72212D21284602F0EDFF14F0020F71
:100A700014BF77212D21284602F0E5FF14F0010F65
:100A800014BF78212D21284602F0DDFF14F4807F69
:100A900014BF6C212D21284602F0D5FF564802F0E4
:100AA000D2FF202E3146C3D1544B4D4AC3F3C4313B
:100AB000C3F30E03C3F50043C3F34313C2F8001599
:100AC000C2F80435D2F80015D2F804254C4852017A
:100AD00002F0B9FF484802F0B6FF03F0C9F801463A
:100AE00010B1484802F0AFFF434802F0ACFF46485F
:100AF00002F0A9FF0021DFF83481394F394D58F851
:100B000021404A0301F5E07347F823403F4802F5CE
:100B100000534E1C02F097FF344B14F0100F344971
:100B2000344808BF194602F08EFF14F0040F14BFBA
:100B300072212D21284602F086FF14F0020F14BF07
:100B400077212D21284602F07EFF14F0010F14BFFB
:100B500078212D21284602F076FF14F4807F14BFFF
:100B60006C212D21284602F06EFF234802F06BFF16
:100B7000202E3146C3D10024194D1F4802F063FFD7
:100B8000C5F88044224802F05EFFDFF8A480C5F873
:100B9000C044DFF8A0901F4D05EBC406777955F8E7
:100BA0003420002F14BF43464B4621461A4802F01A
:100BB0004AFF57B91948013402F045FF1B2CEBD10D
:100BC0000D48BDE8F84302F03EBF3079FFF78CFED8
:100BD00008B11348EFE71348EDE700BF05480000F0
:100BE000003000503D48000028480000EE4700005B
:100BF000E547000012490000514B0000E07F000073
:100C00004048000086480000B6480000D848000070
:100C1000EC480000F04400000849000015490000BD
:100C20001C4900002449000070440000C845000031
:100C3000FA470000F247000010B500284BD0002A08
:100C400049D0264B99423CD9541803F61D239C42A7
:100C50003AD803F0F8F80020BDE81040714672461B
:100C60007346B7EE000AF7EE000AB7EE001AF7EE89
:100C7000001AB7EE002AF7EE002AB7EE003AF7EEB8
:100C8000003AB7EE004AF7EE004AB7EE005AF7EE28
:100C9000005AB7EE006AF7EE006AB7EE007AF7EE98
:100CA000007A8EF3008C10B4F1EE10CA4FF6607427
:100CB000C0F6FF740CEA040CE1EE10CA10BCF44656
:100CC0007447074B994203D9064B54189C42C0D92C
:100CD0004FF0FF30C0E76FF01500BDE70302FF00E3
:100CE0002F01FF003801FF002DE9F04F824685B04B
:100CF0008946002951D00026DFF8B0B0DFF8B08077
:100D000001AF5BF8264098E80700544487E80700E5
:100D10000C223946204603F06FF8054608B9002C2E
:100D20003ED10136052EECD16FF00D05284605B0F9
:100D3000B7EE000AF7EE000AB7EE001AF7EE001A57
:100D4000B7EE002AF7EE002AB7EE003AF7EE003AC7
:100D5000B7EE004AF7EE004AB7EE005AF7EE005A37
:100D6000B7EE006AF7EE006AB7EE007ABDE8F04F22
:100D7000714672467346F7EE007A8EF3008C10B41B
:100D8000F1EE10CA4FF66074C0F6FF740CEA040C62
:100D9000E1EE10CA10BCF44674476FF01505C5E7C4
:100DA0003C222146484603F04EF8BFE74846000083
:100DB00020440000014801F089BF00BF5C460000EC
:100DC00008B530B143683BB1006801F03FF900203D
:100DD00008BD6FF4E040FBE70048F9E7EA8FFFFF4A
:100DE00008B558B1436863B100684FF0FF3101F0B6
:100DF000BBF80028044808BF002008BD6FF4E0409D
:100E0000FBE70248F9E700BFE98FFFFFEA8FFFFF2A
:100E100038B5044618B90B4B0B485B6898476568B2
:100E200055B115F00205206807D10146074801F0C9
:100E30006DF825600023636038BD1422002103F0A3
:100E40002FF8F7E724140020A24A00002800002011
:100E500010B5044618B9134B13485B68984763688C
:100E6000BBB92368ABB94FF0FF3221460F4801F000
:100E70001FF808B923681BB90A4B0D485B689847EF
:100E800014220021206803F00BF8636843F002038A
:100E90006360206803F09AF8636843F001036360BD
:100EA00010BD00BF24140020A24A0000280000202A
:100EB000C84A000008B5064940231422054803F03B
:100EC0006AF8BDE808400449044801F037BF00BF94
:100ED0004400002028000020744600006446000002
:100EE00004488168406A884203D003494FF0805229
:100EF0000A6070473006002004ED00E0094A0A4904
:100F0000936809685866996608494B6843F08053AE
:100F10004B60002383F31188BFF36F8F9368986E43
:100F2000704700BF30060020E046000000ED00E002
:100F300012498A684FF028001044EFF3098C80E8CA
:100F4000F01F202080F31188BFF36F8F0C4F4FF0FC
:100F500000664A6A8A603E60506E0023536680F3E2
:100F6000118804B5104602F007FFBDE8044002F105
:100F7000280090E8F01F8CF30988704730060020A5
:100F800004ED00E01EF0040F0CBFEFF30880EFF358
:100F90000980816911F8021C0229FFD001B502F015
:100FA000E0FE01BD43B2002B08DB012200F01F0070
:100FB00002FA00F0024A5B0942F82300704700BFC2
:100FC00000E100E043B2002B01F10101A8BF03F1F1
:100FD00060434FEA4111B8BF054BC9B2ABBF03F53F
:100FE000614300F00F0083F800131954704700BFED
:100FF00014ED00E073B51E460A9B05460093099B5D
:101000008C1803F078F80B4AA4F1200323F00703AF
:1010100022F001029A61069A1E605A60079A9A604D
:10102000089ADA604FF08072DA61AB6400236B6675
:1010300002B070BD613A0000F8B51E4605460C4688
:1010400017460023E1EE103A00F0D6F90A4B3C4473
:1010500028469D6024F0070402F08EFE304684F39B
:101060000988002163B681F31188BFF36F8F0022D6
:10107000002302F0F5FC00BF3006002001491022D9
:101080000A60704710ED00E0404080F3118830BFE7
:10109000704700BFEFF30880EFF30981724601B596
:1010A00000F0D2F801BD00BF30BFFFF7FDBF00BFA9
:1010B000114A08B5114B22F07F029A60BFF34F8F9F
:1010C000BFF36F8FD3F8882042F4A002C3F88820C2
:1010D0000B4A536823F040435360BFF34F8FBFF375
:1010E0006F8F0023E1EE103A00F0F0FD00F0F8FD04
:1010F00000F050F900F032FE0000000000ED00E0CA
:1011000030EF00E001B572B60B4A106A00281EBF2E
:101110000021116202F03DFF62B6EFF30580A0F1FD
:1011200010004FEAC0000549014409C99847BDE8CD
:10113000014003490847000030060020A04100009C
:10114000E10E000002F097FC202080F3118808488F
:101150004FF40061401880F30988EFF314800221F6
:10116000084380F31488BFF36F8FFFF7A1FF0000DF
:10117000D00B00200C4B9A6A9A6A9A6A920708D59B
:101180005A6B9A6A120604D518B19A6A22F0800244
:101190009A6200209A6A9A6A9A6A9A6A42F0FF02F0
:1011A0009A620870704700BF00ED00E00D4B9A6A2C
:1011B0009A6A9A6A920508D59A6B9A6A120404D5BB
:1011C00018B19A6A22F400429A6200209A6A9A6AD6
:1011D000D205044A58BF9B6A936A43F47F439362E3
:1011E0000870704700ED00E0074B00209A6A9A6A89
:1011F0009A6A9A6A9A6A9A6A9A6A9A6A6FEA02423A
:101200006FEA12429A62704700ED00E00D4B9A6956
:101210005A695A69D0070FD45A6991070CD45A6990
:10122000520709D45A69100706D45A69D10603D463
:101230005A69920658BF5A695A6942F0FF025A61C8
:10124000704700BFD0ED00E0F0B5414B8BB05B685C
:101250000025C3F3080385F31188BFF36F8F02F0F5
:101260007F44B4F17F4F1FD112F001041BD056060A
:1012700002F0080468D482F00402C2F3800564B16D
:10128000EFF389860022033B8DF80720042B4CD80E
:10129000DFE803F00C4D51424900EFF38886F1E797
:1012A00006460125EEE725462E46EBE7284BDA6A8F
:1012B00092073AD4DC6A14F0804408D028331B78B3
:1012C000EBB101200DF10701FFF754FF04469DF833
:1012D000073093B92022314602A802F0B4FD099BE1
:1012E0006DB3C3F3080222B96FEA53236FEA4323B5
:1012F000099302A9204602F032FD0BB0F0BD154B58
:101300001B782BB101200DF10701FFF74FFFDDE73F
:10131000114B1C88A7B217B1FFF766FFD6E70F4B3A
:101320005C69002CD3D0FFF771FF0024CFE70DF1EB
:1013300007010020C8E70DF107010020E5E723F4CD
:10134000FF7323F00103D3E7002CA9D00E4699E7E1
:1013500000ED00E029ED00E02AED00E0D0ED00E036
:10136000024A536943F010035361704700ED00E0F7
:10137000BFF34F8F0549064BCA6802F4E06213437E
:10138000CB60BFF34F8F00BFFDE700BF00ED00E073
:101390000400FA05002320210348C2180133412B21
:1013A00082F80013F9D1704700E100E038B5054636
:1013B0004FF02003EFF3118483F31188BFF36F8F95
:1013C00000F0E8FF0A4B9B68AB420BD1094B5A680F
:1013D000C2F3080212B92046FFF790FD5A6842F0A6
:1013E00080525A602046BDE8384002F00ABE00BF75
:1013F0003006002000ED00E010B50E4B88B00293DF
:101400000D4B0E4C03930E4B08A8049302AB40F80F
:101410001C3D0C4A2346012100F002F900230793EA
:10142000094B0121E41A05A80593069400F002F97E
:1014300008B010BD000000200000000000000120E6
:1014400006000100000000200000002010B50B681D
:101450000C7A23F01F0304F01F021A43CB686409BF
:1014600023F01F03044943F0010343EA4403886067
:10147000CA600B6110BD00BF90ED00E02DE9F04F98
:101480008046894614460027484D85B04F4507DA07
:1014900058F827305E68C6B31F2E05D86FF01504C4
:1014A000204605B0BDE8F08FF206F7D1D3F800A0D2
:1014B0001AF01F0FF2D1504602F088FC834606EB6B
:1014C0000A00013802F082FC8345E7D11BF1160FB8
:1014D000E4D0631E5B45E1DBC5F808B0E86858F866
:1014E0002710C5F808B02E6920F01F00D1E900329E
:1014F0001A44984246F01F0602F1FF3A18D15645A9
:1015000005D15FFA8BF002F03FFC0137BEE7C5F86A
:1015100008B0EB6822F01F0203F01F031A43EA60D1
:10152000E0B202F031FC10F1160FB7D0441CECE72A
:10153000C5F808B02A69013B23F01F0302F01F021F
:1015400013435645E0B22B61EBD002F01DFC10F1C5
:10155000160FA3D0C5F808B0EA689DF80830013E20
:1015600062F304038DF808302B699DF808205B08AE
:1015700063F347128DF8082058F827200130D2E98C
:1015800000321344009323F01F031E44A6EB0A0607
:10159000C4B226F01F060F2C03963FF67FAF2046FD
:1015A0006946FFF753FF0134AFE700BF90ED00E05D
:1015B0000522034B5A60BFF34F8FBFF36F8F704705
:1015C00090ED00E0BFF35F8F0022014B5A6070473F
:1015D00090ED00E070B50E4D2E68102E15D8002449
:1015E000FFF7F0FF0B4B0C4A1A63A64205D10B4BD9
:1015F0001E70FFF7DDFF002070BD6968204601EB1B
:101600000411FFF723FF0134EFE74FF0FF30F3E75A
:101610008846000090ED00E0AAFF44008C06002000
:1016200010B5034C2278FFF729FF207010BD00BFD2
:101630008C0600202DE9F74F894607460026DFF883
:101640009080DFF890A0214C4E4519DAD7F804B00D
:10165000BBF1000F36D03B681846019302F0B6FB91
:10166000019B05460BEB0300013802F0AFFB14238E
:10167000854203FB06F306D06FF0150248F80320FD
:1016800003B0BDE8F08F15F1160F48F80350F7D0FE
:101690009AF80020AA42F3DDA5604344A560E06803
:1016A000197B60F3040119732169187B490861F300
:1016B00047101873E26822F01F025A60226922F074
:1016C0001F021A6101360C37BEE700BF90ED00E043
:1016D000440500208C06002070B50C4B0E461C788B
:1016E0000546234600210A4A0F2B0BDD094B191D25
:1016F0001868FFF7ABFE224631462846BDE8704029
:10170000FFF7BCBE936011610133EDE78C0600204A
:1017100090ED00E04405002082680C4B9A6003685D
:1017200083F38888436883F38988027B02F0010190
:10173000EFF3948323F00303920748BF43F00203BF
:1017400009B143F0010383F39488704700ED02E090
:10175000084AD36848B123F400531B041B0C43F020
:10176000BF6343F40033D36070479BB243F400532C
:10177000F5E700BF00ED00E0084AD36840B19BB236
:1017800043F4804343F0BF6343F40033D3607047B6
:1017900023F480431B041B0CF4E700BF00ED00E0C2
:1017A000084AD36840B19BB243F0080343F0BF63DB
:1017B00043F40033D360704723F008031B041B0C71
:1017C000F4E700BF00ED00E0034AD2F88C3043F4A8
:1017D0004063C2F88C30704700ED00E0084B1A6897
:1017E00018B142F001021A60704722F001021A603B
:1017F0001A6811B142F00202F5E722F00202F2E7A4
:10180000D0ED00E0014B1860704700BFF4130020DA
:10181000F0B54B79012B29D0032B24D110268B79DD
:10182000032B20D1CC792CB1012C1CD103689B68EF
:101830001B79C3B10A7912B1022A14D10E2247F6DC
:10184000122703689B681D680B68BB426FD029D8BC
:10185000B3F5965F65D014D8B3F5167F4FD007D88F
:10186000B3F5967F78D06FF0220056E00026D6E7D9
:10187000B3F5966F52D0B3F5166FF4D14FF41D2324
:101880003FE0B3F5615F4ED004D8B3F5165FEAD1FF
:10189000334B36E0B3F5964F47D0B3F5E14FE2D185
:1018A000304B2EE0B3F5E13F4AD012D84DF6C027B9
:1018B000BB423FD005D8B3F5164FD4D14FF41D032A
:1018C0001FE0B3F5614F38D0B3F5963FCBD1264B2F
:1018D00017E0B3F5E12F39D008D8B3F5613F32D026
:1018E000224FBB42BFD14FF080630AE0B3F5612FB6
:1018F0002FD01F4FBB42B6D14FF0805301E04FF4C1
:101900001C33C5F8243544EA06031343C5F86C3587
:10191000836803C983E803000020F0BD4FF49E23D1
:10192000EFE7144BEDE7144BEBE7144BE9E74FF40B
:101930000003E6E74FF46503E3E74FF46B03E0E7EA
:101940004FF0EB73DDE74FF06C73DAE74FF0E863CD
:10195000D7E74FF07063D4E74FF4A033D1E700BF6F
:101960000050270000C0750000903A0190D003009D
:1019700040420F0000B0130000F03A0000A04E00FB
:10198000026870B59268184B14684FF00052856871
:1019900003219A601D260022C3F87412C3F8702236
:1019A000C4F80C651C26C4F814654FF000669E60F0
:1019B000C3F86C12C3F868221B23C4F808351A2335
:1019C0002946C4F81035FFF723FF58B90823C4F897
:1019D00000351D440123C4F81001C4F83455C4F87F
:1019E0003835236070BD00BF002584502DE9F043D9
:1019F00000261E4C85B054F8049C1D4F01ADB14526
:101A000003D8002005B0BDE8F083636A97E80700BB
:101A1000D3F8008085E807000C222946404602F0F2
:101A2000EBF9A0B9B8F1000F11D0636A21691B6806
:101A30001A6991420BD19A69A169914207D8E1696B
:101A4000914204D962695B6932EA030307D0236AD1
:101A50004BB1404080F311884FF0040002DFE3688F
:101A600001361C44CBE7626A1360F8E73C020000D1
:101A70002C440000064B1868043B1B68092B05D159
:101A8000013801288CBF00200120704700207047DA
:101A90003401FF00054B1868043B1B68092B03D178
:101AA000431E584258417047002070473401FF00E0
:101AB0004E4A08B5136843F002031360FFF7DAFFDC
:101AC00030B14FF050230022C3F81421C3F818217D
:101AD000FFF7E0FF30B10123454A1360A2F6382238
:101AE000C2F87835434B1B68092B07D1424B1B6862
:101AF000022B02BF0122414BC3F87825FFF7CAFF32
:101B000010B10E223E4B1A60FFF7B4FF20B1002245
:101B10003C4B1A6001225A600022D30003F57F0378
:101B2000D3F80013013108D0D3F800130132D3F8F1
:101B30000433B2F5807F0B60EFD1334BDA69D10704
:101B40003BD5324B1946D3F80024012AFBD1C3F808
:101B50000425D1F80034012BFBD12B4BDA69D207D5
:101B600008D5DA69294922F00102DA61D1F80024A6
:101B7000012AFBD11A6A01320AD11A6A22F0FF0245
:101B800042F020021A62214AD2F80034012BFBD124
:101B900000221E4BC3F80425D3F80024012AFBD1F0
:101BA000BFF34F8F1A491B4BCA6802F4E06213431C
:101BB000CB60BFF34F8F00BFFDE71B6A0133C0D07E
:101BC000134BD3F88C2042F44062C3F88C20D3F836
:101BD000882042F47002C3F88820BFF34F8FBFF310
:101BE0006F8F0D4B0D4A1A6008BD00BFD0ED00E0AD
:101BF000384A00503001FF003401FF00004000501F
:101C0000E4AE03500C4700500080FF0000900350EA
:101C100000ED00E00400FA05041400200090D00359
:101C200070B50026084B53F82040013053F820507F
:101C3000A54200D870BD236820465B68984700B174
:101C400066600C34F4E700BFCC460000104B70B562
:101C500005461E460F4C9C4204D10E4CB44209D19D
:101C6000002412E062681AB122681268AA420CD0FD
:101C70000C34F0E763680BB90C34EFE723682846AF
:101C8000196802F0ACF80028F6D1204670BD00BFFC
:101C9000C81400205014002008B50B4D4FF020024E
:101CA000EFF3118382F31188BFF36F8F02F048FACC
:101CB000012104460228D8BF084602F051FA2C62DE
:101CC000FFF7E2F9EAE700BF300600200248034AC6
:101CD0000021121A02F0E4B8000000209006002053
:101CE00008B50648064A0749121A02F0ACF8BDE8E2
:101CF0000840054A0549064802F0A5B8D01300205F
:101D00002C150020644B000000000000644B000014
:101D100000000020012208B50B4B02201A70FFF7CB
:101D20007FFF0A4A0A490B4801F08DFE0320FFF7A6
:101D300077FF00F083FC01F0ABFC074A137B23F034
:101D40000103137308BD00BF8D060020ED4700009E
:101D50000F4B00002C4B0000C405002080B5374B12
:101D6000A2B083F308880025E023354C012784F8CE
:101D70002230E57725766576A576E576636A314E7D
:101D800043F4E0236362636A43F400236362A56360
:101D9000FFF7E6FAFFF772F94FF0FF33A362E36251
:101DA00007AB6C222946184602F07AF8264C8DF8CB
:101DB0002970A0602846FFF733FF3846FFF730FF51
:101DC00000F0ECFB214B66624FF48062CDE90473B6
:101DD000CDE902551E4BCDE900551E49304600F0B5
:101DE00013FC737B23F0040213F01B0F727304D1F6
:101DF000B36913B9304600F01BFA174B0122059363
:101E00000F23CDE903320023144DCDE901330093B4
:101E10004FF4A072124B1349284600F0F5FB6B7B80
:101E2000E56023F004036B730F4B4FF48062C4E949
:101E300006330849064B0348FFF7FEF8D01300208D
:101E400000ED00E0C405002030060020534B0000E8
:101E5000151D000090060020584B0000580500207A
:101E6000991C0000900A00204806002070B50E4B17
:101E70000E4CA34201D3002070BDD3E9030141EA17
:101E8000000212F003020BD19D685A61AA4201D1EF
:101E90001C33EEE75E6901320E6059610144F5E7DB
:101EA0006FF01500E8E700BFC8140020C814002038
:101EB00010B513460C464FF02002EFF3118182F368
:101EC0001188BFF36F8F426962B1226043691B685A
:101ED0004361836901338361002081F31188BFF37B
:101EE0006F8F0DE01BB923606FF00B00F5E7024622
:101EF000044800F0FDFA18B9034B9B685B69236046
:101F000010BD00BF8E0600203006002070B50446CC
:101F10000D464FF02003EFF3118683F31188BFF3D2
:101F20006F8F02F0BBF880B100212A6881664261A0
:101F3000427BD20603D183690BB900F079F93146AF
:101F4000BDE87040074802F051B82B6862691A601A
:101F50002B686361A369013BA36186F31188BFF31A
:101F60006F8F70BD8E060020F8B504460F464FF007
:101F70002003EFF3118583F31188BFF36F8FC268DD
:101F800030495AB180688E68B04215D0B7B985F330
:101F90001188BFF36F8F6FF00F000CE08B6893F91F
:101FA0000E3023618B680132E260A36085F31188F3
:101FB000BFF36F8F0020F8BD2369F2E790F90E3070
:101FC00096F90E109942A8BF194621EAE17199428B
:101FD0002BDA00F0A1FA06463B46224629461A486B
:101FE00000F086FA0028E6D04FF02003EFF31185C9
:101FF00083F31188BFF36F8F236821699C4207D058
:1020000033B193F90E309942A8BF194621EAE17124
:10201000A06890F90E30994209D16EB129460A485C
:1020200001F0E4FF6FF00A00C5E70026D4E700F0F6
:1020300073FA0028F2D1F0E785F31188BFF36F8FB0
:10204000F0E700BF300600208E06002038B5836818
:102050000446002B3BD0214A926893423AD1DA7B66
:10206000013ADA73C368012B05D0013BC36000F06D
:10207000C3F8002038BD4FF02003EFF3118583F340
:102080001188BFF36F8F0169806890F90E30994213
:1020900001D000F041FA204602F000F8A06080B1C3
:1020A00090F90E20226100228266427BD20603D183
:1020B00083690BB900F0BCF82946094801F096FF86
:1020C000D5E7E06085F31188BFF36F8FCFE76FF03E
:1020D0001500CFE74FF0FF30CCE700BF30060020FF
:1020E0008E06002010B5084C23685BB1FEF7E2FBBA
:1020F0002368064A184410610021BDE810401846C4
:1021000002F02EB810BD00BF680600203006002087
:10211000F8B50D464FF02003EFF3118483F31188D7
:10212000BFF36F8F4FF4004140F2E73600270022E3
:10213000E1FB0067094B30461A6139464FF47A7269
:102140000023FEF77BF8064B1860064B1D60FFF777
:10215000C9FF84F31188BFF36F8FF8BD30060020EC
:1021600068060020640600204FF02003EFF3118181
:1021700083F31188BFF36F8F044B9A68D37B013BC5
:10218000D37381F31188BFF36F8F7047300600203F
:10219000094B03F12802824205D19B688B4202D190
:1021A0004B7BDB0607D1D1E900231A600A68536034
:1021B0000023C1E9003370473006002038B50D4CCC
:1021C000024604F1280001F032FF054600B9E56837
:1021D000A3684AB95A7BD20606D1AA6922B9DA891C
:1021E0007F2A01D9636238BD9D4201D0FFF77AFF93
:1021F0006562F8E73006002010B54FF02003EFF3DA
:10220000118483F31188BFF36F8F084B00209A6805
:10221000D37B0133D373FFF7D1FF84F31188BFF36E
:102220006F8FBDE8104001F0F8BE00BF30060020FF
:10223000F8B54FF02003EFF3118483F31188BFF357
:102240006F8F164A114651F8283F8B420CD05BB174
:10225000D66A90F90E5093F90E70AF420BDCB34280
:1022600002D01B68002BF6D1D36A01604360D36AA9
:102270001860D06205E05A68C0E900325A68106000
:102280005860437B63F07F0343730020FFF796FFA2
:1022900084F31188BFF36F8FF8BD00BF30060020B4
:1022A000F8B504464FF02003EFF3118583F311884E
:1022B000BFF36F8F90F90D30002B03DA01461848F9
:1022C000FFF766FF174A02F12801D2E90A308B4274
:1022D0000BD053B194F90E6093F90E70B7420ADC3B
:1022E000834202D01B68002BF6D1C4E90010D36AE8
:1022F0001C60D46205E05968C4E9003159680C607B
:102300005C60637B906863F07F036373031B5842D8
:102310005841FFF753FF85F31188BFF36F8FF8BD66
:102320005806002030060020154A164938B50C68BA
:102330009368A342144603D1BDE83840FFF7D2BEEC
:1023400000250D6010490968B9B1D9897F2914D8D1
:102350000E4993F90E5009688D420EDB0C498B42F1
:102360000BD0996949B91169814203DC1846FFF71E
:1023700097FFE1E7091A116138BD00232361FBE7EC
:102380003006002060060020680600206406002059
:1023900058050020036D70B5044603B1984704F159
:1023A000180001F0B7FE4FF02003EFF3118583F31F
:1023B0001188BFF36F8F204601F00FFE0646D8B19B
:1023C00094F90D30002B07DA21461248FFF7E0FEA2
:1023D000637B03F07F0363730F4B9868021B5042CB
:1023E0005041FFF7EBFE637B43F00803637385F313
:1023F0001188BFF36F8F70BD637B9B07F3D52146B8
:10240000A068FFF7C5FE637BA66023F00203637339
:10241000E9E700BF580600203006002038B5044622
:102420004FF02003EFF3118583F31188BFF36F8F13
:1024300090F90D30002B07DA01460948FFF7A8FE96
:10244000637B03F07F036373064B9868031B58425A
:102450005841FFF7B3FE85F31188BFF36F8F38BD86
:10246000580600203006002070B504460D4616467A
:10247000FFF7D4FF637B43F002036373EDB12B6876
:10248000A5609D420CD05BB194F90E2093F90E101B
:1024900091420CDC69688B4202D01B68002BF5D19D
:1024A0006B68256063606B681C606C6005E05A684F
:1024B000C4E900325A6814605C60731C15D04FF494
:1024C000004540F2E730002126EAE6764FF47A72C2
:1024D000C5FB06010023FDF7B1FE0449421C04F1CF
:1024E0001800BDE8704000F03FB970BD3B400000EF
:1024F00010B50C461146064A9068064A10601A4606
:10250000FFF7B2FF2046BDE81040FEF7F7BC00BF62
:1025100030060020600600202DE9F84304464FF005
:102520002003EFF3118983F31188BFF36F8F01F05C
:1025300054FD4EB2804668B3174D214605F1280779
:102540003846FFF725FEAB6AA673BB422A460AD07F
:102550004BB1E96A93F90E00B0420BDC994202D00C
:102560001B68002BF6D1D36A27606360D36A1C60B6
:10257000D46205E05A68C4E900325A6814605C60AD
:102580000120FFF71BFE89F31188BFF36F8F4046D0
:10259000BDE8F883A673F6E7300600200021044B5F
:1025A000084603F12802C3E90A22FFF7B1BD00BFC4
:1025B00030060020014B9868704700BF30060020AD
:1025C00010B54FF02002EFF3118482F31188BFF3AE
:1025D0006F8F427B510704D484F31188BFF36F8F50
:1025E00010BD22F0040112F01B0F417303D1836967
:1025F0000BB9FFF71DFE2146BDE81040014801F070
:10260000F5BC00BF8E06002030B587B00E9D044695
:1026100004950D9D03950C9D02950B9D01950A9DBA
:102620000095FEF7E7FC044B9B6813B9236607B0DF
:1026300030BD1B6EFAE700BF300600202DE9F04FD9
:10264000284E294DB04687B0B54205F1300410D36D
:10265000FFF78AFD4FF4004940F2E7360027224C8D
:10266000DFF888A0444521D307B0BDE8F04FFFF75D
:10267000C3BD54F8043C059354F8103C049354F83B
:10268000143C039354F8183C029354F81C3C0193F7
:1026900054F8203C009354E90A2354E90C01FFF755
:1026A000B3FF54F8303CDD642546CDE7616A4B1C2E
:1026B00004D0256821B92846FFF782FF3034D1E7DE
:1026C000B346BC46E9FB01BC4FF47A72002358467E
:1026D0006146FDF7B3FD5146421C05F1180000F0BC
:1026E00043F8EBE7C8140020C81400203B4000006A
:1026F000034B1B680BB9FEF7DDB80020704700BF25
:102700006C060020036840B1084A5268904204D029
:102710001BB19A6881680A449A6042681360036832
:102720005A600023C0E90033704700BF081400203E
:102730000B4B10B51C689C4208BF0024FFF7D8FF64
:1027400054B1A368181A20EAE070064B1B6913B154
:102750009842A8BF184610BD6FF00040F5E700BFD3
:10276000081400203006002070B504461646C160EB
:102770004FF02003EFF3118583F31188BFF36F8FC0
:10278000FFF7B6FF012EACBF80190130174BA060D8
:102790001A689A4201D05E6832B95A682360626052
:1027A0005A6814605C600BE09068A168884216DD8E
:1027B000411A91605168C4E9002151680C6054606D
:1027C0001A689A4206D0944204D1FFF7B1FF002163
:1027D000FEF718F885F31188BFF36F8F70BD091AE3
:1027E0009642A160D9D01268D6E700BF0814002035
:1027F0002DE9F04B0446FFF797FD4FF02003EFF370
:10280000118583F31188BFF36F8F214F214EB84696
:10281000DFF884903460D9F8004032684C45D7E93D
:1028200000BC05D024B1A368934214DD9B1AA360B9
:1028300000241BEB02004CEBE271C8E9000134609C
:10284000FFF776FF2146FDF7DDFF85F31188BFF323
:102850006F8FBDE8F08B1BEB03004CEBE371D31AD9
:1028600033600023C7E90001A3602046FFF74AFF59
:1028700085F31188BFF36F8FE36898474FF020030B
:10288000EFF3118583F31188BFF36F8FC3E700BFA8
:10289000000000206C0600200814002038B5074C0A
:1028A000074DAC4201D3002038BD04F1140320468B
:1028B000C4E9053300F0F3FE1C34F2E7C81400202D
:1028C000C814002001F0A8BA0A46002101F0E8BAB5
:1028D00010B5114800F048F800B110BD0F4800F0E5
:1028E00043F80028F9D10E4C204600F03DF80028AE
:1028F000F3D10C4B0C481C6000F036F80146002860
:10290000EBD100F02DF8044608B1204610BD00F0D0
:1029100051F82046FAE700BF1C14002010140020D4
:1029200018140020201400201414002008B50848B2
:1029300000F024F8074800F021F8074800F01EF8DE
:10294000064800F01BF8BDE8084000F00BB800BFD7
:102950001C1400201014002018140020141400204F
:1029600000207047704700BF08B5034B02681B6822
:1029700010689847002008BD2C14002008B5034BB0
:1029800002685B6810689847002008BD2C1400207E
:102990000268024B10689B68184700BF2C14002087
:1029A00008B5034B0268DB6810689847002008BD33
:1029B0002C14002070B5094C094D2069AB6898476C
:1029C00018B1084B08485B6898470021074AEB6834
:1029D00011602069BDE87040184700BF3C1400201A
:1029E0002C14002024140020E4460000700600206F
:1029F000F8B51A4C1A4D0746AB6820699847E8B9F4
:102A0000184E33687FB93BB90120174A1749C2F8FD
:102A100000050A68002AFCD101333360EB682069A5
:102A200098470020F8BD002BF8D0012B08D0013BBF
:102A300033602069EB6898470020F3E70C48F8BD45
:102A40000A4A1368002BFCD1074A6FF07E40C2F897
:102A5000003500F021F83368E9E700BF3C1400209E
:102A60002C1400207006002000008450101984509F
:102A7000E98FFFFF0020704700207047430503D512
:102A80004FF0FF32024B1A60024B1860704700BFD4
:102A900008118450081A8450014B1860704700BF19
:102AA000041A845008B100F003B84FF47500704761
:102AB0000246074803681342FCD021B1054B064883
:102AC0001B680B600360054B00201A60704700BF55
:102AD000001A84500411845008118450081A84503C
:102AE00000F0A0B830B129B10023014403700130D7
:102AF0008142FBD1704700BF2DE9F041ADF51A7D51
:102B00000F4605920021144612A84FF408721E4683
:102B100001F0C6F9002308A819462822069301F0FF
:102B2000BFF9002F3CD0002E3AD0002C38D0042121
:102B300006A8FFF7C9FE08A82821FFF7C5FE08A8C8
:102B400000F032F878B14FF0FF3512A84FF4087159
:102B5000FFF7C8FF06A80421FFF7C4FF28460DF5BC
:102B60001A7DBDE8F08112AB0DF11C080390CDE990
:102B70000163024605AB08A9CDF8008006A800F065
:102B8000E9FC0028DFD13368A342DCD3D8F8001079
:102B90000546083138462246FFF794FE3460D4E7F4
:102BA0004FF0FF35DAE700BF1C2330B583B002A930
:102BB00041F8043D044600F0B1F90546D8B9019B3F
:102BC0001C2B1BD1D4E9003201210033E16118BF75
:102BD00001230AB143F00203A26832B9E268AAB93C
:102BE000C4E908323BB90D4D09E0E26843F0040343
:102BF00062B9C4E90832284603B030BD084D20460A
:102C00001C21FFF761FE284603B030BD0022284694
:102C100043F00803C4E9083203B030BD0E0CF000E5
:102C2000370CF00010B50C4C236813B10B4B1B682C
:102C30006BB900F031F938B10138062896BF084B5E
:102C4000084853F8200010BD0122044B1A600123EC
:102C50000020236010BD00BF74060020780600200D
:102C600004470000FE8FFFFF10B5094C23681BB11D
:102C700001230020236010BD00F07CF80028F7D06D
:102C80000138062896BF034B034853F8200010BDB7
:102C90007406002004470000FE8FFFFFBFF34F8F34
:102CA0000549064BCA6802F4E0621343CB60BFF3E8
:102CB0004F8F00BFFDE700BF00ED00E00400FA0504
:102CC000014B5B68184700BF24140020024BD0E979
:102CD0000012C3E90012704724140020704700BF9F
:102CE00010B5044620B1BFF35F8F0020206010BDF7
:102CF0000348FFF7E5FFBFF35F8F0020206010BDA2
:102D00004447000010B5044610B10023236010BDF5
:102D10000248FFF7D5FF0023236010BD20470000C5
:102D200050B10122D0E8EF3FC0E8E12F0029F9D1EE
:102D3000012BF7D0BFF35F8F0020704770B40B4BAF
:102D40000668C268D0E90154C3E90242C3E90065DC
:102D5000D1E903020E68064BD1E90154C3E90065CD
:102D6000C3E902401A6170BC704700BF2C140020F8
:102D70003C14002010B5FFF77DFE70B9FFF7A8FDE9
:102D800080B9FFF735FE80B9114B1B681B0EF02B85
:102D90000DD00624FFF770FE00E00324FFF7C6FD08
:102DA000204610BD0424204610BD0024F2E7094A45
:102DB000094B12689A4201D00724EBE70120FFF784
:102DC00017FE0028F1D1054B04461860E8E700BF64
:102DD00028198450241A84500000E0200C1A8450D2
:102DE00030B5ADF5157D4FF4087200210CA801F047
:102DF00057F8002302A819462822019301F050F841
:102E000002A8FFF7D1FE18B105200DF5157D30BDE4
:102E10001C4D4FF0FF312868FFF7BAFD0446F0B9AA
:102E20000020FFF7E5FDB0B90CAA02A901A800F047
:102E3000D5FB04460120FFF7DBFDF0B92868FFF75A
:102E4000AFFD10B11048FFF73BFF2046002CDBD14F
:102E50000DF5157D30BD0D48FFF732FFE4E70C4856
:102E6000FFF72EFF012CDBD12868FFF799FD002822
:102E7000CAD00548FFF724FFC6E70648FFF720FF42
:102E8000DCE700BF201400207C47000094470000CE
:102E900064470000B447000008B5FFF7EBFD18B128
:102EA000FFF744FD032008BDFFF712FD68B9FFF7E7
:102EB0009FFD60B9154B1B681B0EF02B12D0FFF75E
:102EC000DBFDFFF733FD062008BD042008BDFFF73A
:102ED000D3FDFFF72BFDFFF783FF00280CBF002079
:102EE000052008BD0A4A0B4B12689A4205D0FFF72D
:102EF000C3FDFFF71BFD072008BD0120FFF778FD8C
:102F00000028E4D1044B1860E5E700BF281984507D
:102F1000241A84500000E0200C1A845018B111B11A
:102F20000B681C2B01D0012070474FF47F033A4AF5
:102F3000D3F8101C91425AD0D3F8102C013256D03D
:102F4000D3F8102C4FF47F030260D3F8141C334ADB
:102F500091425ED0D3F8142C01325AD0D3F8142CFD
:102F60004FF47F034260D3F8182C12F5947F4DD0B4
:102F7000D3F8182C013249D0D3F8182C4FF47F0322
:102F80008260D3F81C1C264A91423CD0D3F81C2CFA
:102F9000013238D0D3F81C2C4FF47F03C260D3F831
:102FA000002C70322DD0D3F8002C013229D0D3F868
:102FB000002C4FF47F030261D3F8042CAF321ED0F3
:102FC000D3F8042C01321AD0D3F8042C4FF47F0329
:102FD0004261D3F8081C134A91420BD0D3F8082C55
:102FE000013207D0D3F8083C83610020704740F6D7
:102FF000FC02A7E740F2373383610020704751227B
:10300000E4E79022D5E742F60412C5E740F6D8621D
:10301000B4E742F2D002A3E7FCF8FFFFD020FFFFA5
:103020000429FFFF37F3FFFFA8B32DE9F0414C1E41
:10303000B4F5047F2CD25BB352B34FF0000CC9003F
:10304000E646654664464F1E03F1FF380CE0AB428E
:1030500016D08E4501D10CF1010CA84516D00134D3
:10306000BC4205F1010518D8610950F8211004F09F
:103070001F06F1401F2E18BF01F00101002CE6D100
:103080000025A8458E464FF0010CE8D16245E6D2F6
:103090000348BDE8F081024870470020BDE8F08198
:1030A000370CF1002DE9F04F8FB00D46DDE91941E5
:1030B0008346002957D12969039100211C60189B80
:1030C0001960002A00F02281814A824B11686A6AE5
:1030D0001B689A4257D10A2955D19BF803300693B1
:1030E0000399042308467C4A0293A2FB000292083B
:1030F000CB0002EB420204F10800A1EB4202013BCB
:10310000DFF8D091DFF800A2049000920593189B9D
:10311000039C1C60002C00F0CC800026049F00F073
:10312000A9FA00230793069BBBF1000F3AD0002DAC
:1031300034D053BB5B000693BBF1000F36D0002D9B
:1031400034D0E3B106A9284600F084FA002800F044
:103150007D81624B984212D0009000F08BFA00986B
:103160000FB0BDE8F08F4FF47F01D1F80C0C0130A7
:103170000CBF4FF40471D1F80C1C03919DE72B6A2E
:1031800073B95648E8E75648E6E706A9284600F02E
:1031900061FA68B1534B9842DED0069B082BC9D127
:1031A0005148D9E7082BFBD05B0006934F48D3E783
:1031B0002946069800F030FA0028EBD1069B082B30
:1031C00000F00E81042B00F03181A3F10203B3FA69
:1031D00083F35B09019301231946454A136042F8C2
:1031E000843C434B19606B6AC9F80030D9F8002061
:1031F0006B6A9A42F5D14FF000084FF0FF30CAF8E1
:103200000080FFF73BFC3B4A3B4B40461A60FFF710
:1032100043FC0A22019839492D4B08601A602A693B
:10322000A8F15538A8FB02126B6A120903EB43039D
:10323000DB0303FB02F3324A9B0913600123CAF844
:1032400000300699DBF800200B0243EA016322F00C
:103250007F421343CBF8003007A800F0CDF90028D7
:1032600098D1284BA8FB04281A681433089253F805
:10327000102CB6EB980F099253F80C2C0A9253F8C5
:10328000082C0B9253F8042C0C921B680D9301D15F
:10329000009B9BB93846182208A9FFF713FB183C7E
:1032A00018370136002C7FF43AAF049B002B40F016
:1032B0009A800023189A1360069B6FE71A463846D7
:1032C00008A9E41AFFF7FEFA009B1F44E9E700BFD4
:1032D0003811845030118450ABAAAAAA310CF100E5
:1032E000300CF100020CF100320CF100350CF10051
:1032F000C4118450FEFFFF0F001184500C11845044
:10330000D8118450141184502C118450BBF1000F3B
:103310003FF44CAF002D3FF449AF01230EA941F813
:10332000203DCBF80020284600F094F900287FF4D7
:1033300013AF2946069800F06FF900287FF40CAF10
:10334000069F082F00F0EB80042F00F0EA80A7F121
:103350000207B7FA87F77F0901221646734B7449B3
:103360001A6018460A60943B06606A6A1A60196817
:103370006A6A9142F8D14FF000086E4B4FF0FF306F
:10338000C3F80080FFF77AFB6B4B6C4A40461A602B
:10339000FFF782FB0A226A496A4B0F601A601A998A
:1033A0002B6901296A6A00F0B1806749A1FB031308
:1033B0001B09012102EB4202D20303FB02F3634A21
:1033C0009B0913605B4B19600699DBF800200B0228
:1033D00043EA016322F07F421343CBF800307FE6DB
:1033E00003230193F7E6039BB3F5047F3FF661AF38
:1033F000DDE9047C204623466E6904E001200133A8
:103400006345144615D85A0957F8222003F01F01C6
:10341000CA401F2918BF02F00102002BEED0A242C1
:10342000ECD101308642EAD149480BE002230193F6
:10343000D1E64FF48063DDE90310AA69FFF7F4FDDC
:1034400000285DD00023189A1360A3E62946069849
:1034500000F0E2F800287FF47CAE069C082C51D0E6
:10346000042C51D0A4F10204B4FA84F464090123B9
:103470001E4619462D4A136042F8843C2B4B1960B6
:103480006B6AC9F80030D9F800206B6A9A42F5D10E
:1034900000274FF0FF30CAF80070FFF7EFFA264B15
:1034A000264A38461A60FFF7F7FA0A222449254BC4
:1034B0000C601A602A6924496B6AA1FB021203EBB3
:1034C00043031209DB0303FB02F3204A9B09136049
:1034D000CAF80060069BDBF800101A0242EA036398
:1034E00021F07F421A43130A03F47F03134323F0AE
:1034F0007F43CBF80030029B013B02937FF407AE81
:10350000002029E60324B2E70224B0E74FF47F034A
:10351000D3F80C1C013106D0D3F80C3C45E7032747
:103520001AE7022718E7162343E700BFC4118450A7
:10353000401184502C11845000118450FEFFFF0F65
:103540000C11845038118450ABAAAAAAD811845007
:10355000360CF1002DE9F0431B4C85B00746DDE940
:103560000D56884620684FF0FF319146FFF710FA5C
:1035700028BB0020FFF73CFAE8B90023CDE900564C
:1035800002934A46414638460C9BFFF78BFD0546A1
:103590000120FFF72DFA50B92068FFF701FA10B1AA
:1035A0000A48FFF78DFB284605B0BDE8F0830848C0
:1035B000FFF786FBF0E70748FFF782FBDDE70648E9
:1035C000FFF77EFBD5E700BF201400207C470000FA
:1035D000B4470000944700006447000010B5012480
:1035E00086B005ABCDE901240093002204ABFFF7C0
:1035F00059FD06B010BD00BF08B501464FF480600C
:10360000FFF750FA00230249024A0B60136008BD1D
:10361000C81184502C1184500138072815D8DFE8D0
:1036200000F0100C140814141404CB6800204B6232
:1036300070478B6800204B6270474B6800204B62DC
:1036400070470B6800204B6270470148704700BF0D
:10365000310CF1000B6802E0082B0B6006D8026AFF
:1036600013424FEA4303F7D00020704700487047E9
:10367000310CF10000230449044A0B604FF48060D0
:103680001360FFF7FBB900BF2C118450C4118450A4
:1036900008B5FDF7C3F9BDE80840FDF753B9FF23AE
:1036A0002DE9F74F4568002229464FF00C0A4FF0EC
:1036B000200B0789046805FB07FCC372837A644406
:1036C0000193019B934208DC002319468F4205EBCE
:1036D000030C21DC03B0BDE8F08FBCFBF1F3202B21
:1036E00084BF1F3393FBFBF30AFB02FED0F80C8070
:1036F0004FEA910108EB0E0606F10409C6E90199AB
:1037000021F0030194BFC27248F80E4002F1010299
:1037100088BF04EB8304D4E7C268066802F1040E94
:10372000F41846F803E093680131636093681C6005
:1037300094606346CAE70020704770B50D460446A2
:103740004520A04729465220A04729462346BDE8E8
:103750007040522018472DE9F04F4FF00008064600
:103760000F461C464FF0FF3AC1468BB002F1FF3BBB
:10377000002505E05DB9252800F056813946B0479F
:103780001BF8010F0028F5D10BB0BDE8F08F6428BD
:103790006DD01AD839280AD831285FD22D2800F0E8
:1037A000498130284BD0252807D139460BE05828CD
:1037B00000F0BC80632800F0318139462520B047F5
:1037C00039469BF80000B047D2E7702800F0A4808B
:1037D00011D869284BD06C2805D1B8F16C0F29D1CC
:1037E0004FF04C08CCE76828E7D1B8F1680F21D139
:1037F0004FF04808C4E7752870D017D87328DCD17B
:103800002568231D02932B461C4614F8010B002843
:1038100040F0FB80B9F1030F40F012815C1BAAEB72
:103820000404002C00F3F580029CA1E778287DD0E9
:103830007A28C2D1B8F1000FBFD18046A0E7BAF113
:10384000000F0EDAB9F1000F00F0F780A0F1300A96
:10385000B9F1000F08BF4FF0020991E7BAF1000F6C
:10386000F4DB0A2303FB0A0AAAF1300AF0E7B8F1F5
:103870007A0F02D1256804341FE0B8F16C0FF9D03B
:10388000B8F14C0FF6D1073424F0070303F1080414
:10389000D3E9002312F10040CDE9022343F10001F6
:1038A00000234FF0FF328B4208BF824204D23946D8
:1038B0003046FFF742FF5BE7029D002D05DA3946EF
:1038C0002D20B0476D420AF1FF3A4B462A46CDF80B
:1038D00000A039463046FCF771FE49E7B8F17A0F8F
:1038E00002D12268043413E0B8F16C0FF9D0B8F1BA
:1038F0004C0FF6D100214FF0FF30073424F00703BE
:1039000003F10804D3E90023994208BF9042CED3C3
:10391000CDF800A04B46DCE739463020B0473946A9
:103920007820B0474FF0080A4FF001099BF80030AB
:10393000702B05D1236804340693002302930EE014
:10394000B8F16C0FF6D0B8F14C0FF3D1073424F076
:1039500007031A6803F108045B68069202930023C8
:103960001022059307934023043B02990698C3F164
:10397000200CA3F1200ED84001FA0CFC40EA0C0008
:1039800021FA0EFE40EA0E0010F00F0007D1079951
:1039900001B92BBB4FF0300C07E00795E4E709288D
:1039A0008CBF4FF0570C4FF0300C39466044CDE9D6
:1039B0000732B047059B01330593DDE90732002B41
:1039C000EBD1B9F1030F7FF4D3AE059BC3EB4A05EE
:1039D000002D7FF7CDAE39462020B047013DF7E7F7
:1039E000511E9245089107DBB9F1010F06D1394606
:1039F00030200993B047099B089AB5E7B9F1020F47
:103A0000FAD1099339462020F4E73946B0472346D6
:103A1000FAE639462020B047013C02E72068251D20
:103A20003946B0472C46A3E6A846A9464FF0FF3AD0
:103A30000125A5E64FF00309A2E64FF001099FE634
:103A4000029C05469CE60FB407B504A951F8040B87
:103A50000191FCF705FE03B05DF804EB04B070477C
:103A6000044608B5084611461A46A047FEF7A2FDCF
:103A7000FDF79CFC7047FEF71BB80C228368C9B2A7
:103A800002FB01314B7A23B9087AB0FA80F0400981
:103A90007047022070470268F8B59768CCB2866814
:103AA0004FF02003EFF3118583F31188BFF36F8F7D
:103AB0000C226243B1180B7A1BB3013BDBB20B72D1
:103AC00013BBB3503A444B605368B3B90C23012184
:103AD00003FB0473DA7A1B8902F150221160002281
:103AE00003F150231A600C21002001FB0464607272
:103AF00085F31188BFF36F8FF8BD98470028E5D193
:103B0000F1E76FF04400F3E70020F1E738B50C244B
:103B10008368054604FB0134012363724FF02003E0
:103B2000EFF3118183F31188BFF36F8F23682BB1FB
:103B300060681A688342226008BF626081F311885E
:103B4000BFF36F8F03B938BDD3E9012128469047F1
:103B5000E4E703682DE9F041D0F808C005469F6806
:103B6000CEB24AB10C2373435CF803309A425CD066
:103B700013B11B68002BF9D14FF02003EFF3118034
:103B800083F31188BFF36F8F0C2171430CEB01039A
:103B90001C7A0134E4B21C7280F31188BFF36F8F7A
:103BA00032B34FF050204FF0030EC0F808E3587ABC
:103BB000A0B94FF0200EEFF311888EF31188BFF3F8
:103BC0006F8F1060D3F804E0BEF1000F20D15A606F
:103BD0004CF8012088F31188BFF36F8F4FF050230A
:103BE0000321C3F8041318B1D2E9013128469847DC
:103BF000012C0BD10C237343FB586BB90C2301220E
:103C000003FB0676B37A03F150231A6000200EE01E
:103C1000CEF800205A60DDE7284698470028EDD10D
:103C200031462846FFF772FFF0E76FF00F00BDE85E
:103C3000F0810022FFF78DBF10B50022044601215C
:103C40000520FDF7BFF90520FDF7ACF94FF0502333
:103C50000222C3F8182503220020C3F80423A36816
:103C6000C3E90000A368C3E9030010BD70477047B3
:103C7000002307B502A800F8043DFEF731FF03B0AA
:103C80005DF804FB902908B5134639D10A46014670
:103C90000020FEF731FFBDE80840714672467346CA
:103CA000B7EE000AF7EE000AB7EE001AF7EE001AB8
:103CB000B7EE002AF7EE002AB7EE003AF7EE003A28
:103CC000B7EE004AF7EE004AB7EE005AF7EE005A98
:103CD000B7EE006AF7EE006AB7EE007AF7EE007A08
:103CE0008EF3008C10B4F1EE10CA4FF66074C0F67B
:103CF000FF740CEA040CE1EE10CA10BCF4467447E1
:103D00006FF01500C7E7FEE7FDF7C4B943B2A9B1EC
:103D1000002B12DB01215B099B0003F1604303F5DB
:103D20006143D3F8802200F01F0001FA00F022EA7C
:103D30000000C3F88002D3F880327047002BFCDB10
:103D400001225B099B0003F1604303F56143D3F853
:103D5000801200F01F0002FA00F00843E9E700F0CB
:103D600009B90146006800F005B908B5FDF79CF9EE
:103D7000BDE80840FDF7B4B807B5002101A8FDF77C
:103D8000ABFC03B05DF804FB30B585B09DF80820AE
:103D90000D890B684C68498965F3040261F3471289
:103DA00000938DF8082023F01F03621E134423F0B4
:103DB0001F030F280393044605D86946FDF746FB09
:103DC000204605B030BD6FF01504F9E740E800F378
:103DD00013F4803FD8B208BF6FF015007047013868
:103DE000013910F8013F11F8012F934202D1002B45
:103DF000F7D11A46981A704710B55AB1013984188C
:103E000010F8012B11F8013FA04201D09A42F7D0DF
:103E1000D01A10BD1046FCE7431A934210B500EBD0
:103E2000020308D3024601399A420BD011F8014F20
:103E300002F8014BF8E70A4412F8014D8A4203F8F0
:103E4000014DF9D110BDF0B581EA0004A507034684
:103E50000BD0013B0A4491421DD1F0BD002AFCD099
:103E600011F8014B013A03F8014B9C07F6D10C46BF
:103E70001D1F8F183E1B032E08D86FF003059408F2
:103E800005FB0422A40023442144E2E754F8046B18
:103E900045F8046FEEE711F8014B03F8014FDAE73C
:103EA0000346F0B5C9B29C070FD11D4641EA012473
:103EB00044EA04449F187E1B032E0CD8940803EB9D
:103EC000840413449C4209D1F0BD002AFCD003F8BD
:103ED000011B013AE7E745F8044BECE704F8011B46
:103EE000F0E74FF0FF3070470B46826892E803001E
:103EF00083E803000020704703689B681B68D3F8C1
:103F00008004C3F880047047036882689B681B685C
:103F1000D3F8100138B1127A00200A700122C3F8D8
:103F200010011A6070474FF0FF30704782B002AA4C
:103F300002F8011D002103689B681B68C3F820116B
:103F4000C3F844250122C3F848259A60D3F820110C
:103F50000029FBD0DA6002B0704708B50020FDF7F9
:103F600007FA08B5FCF726FFFCF7A4FFBDE80840F8
:103F7000FEF77ABE70B505460E46FEF71BFB3146CE
:103F800004462846FFF7E9FF2046BDE87040FDF7EC
:103F90000DBAFFF76CBE30B50024846141EA02041B
:103FA00014F00304C0E9023201610CD14461A34260
:103FB00003D1C0E90000002030BD456901340D6027
:103FC00041611144F3E76FF01500F5E70346002067
:103FD000C3E90033C3E902007047437BDB0603BF3C
:103FE0008069B0FA80F040090020704721B9EFF3F2
:103FF000058008B9FCF782BF81F31188BFF36F8F8A
:104000007047034620B9EFF305820AB9FCF776BF83
:1040100083F31188BFF36F8F70474FF02003EFF3E6
:10402000118083F31188BFF36F8FFFF7EABF036836
:10403000984214BF18460020704750F8103C70B5E5
:104040000446A0F11805CBB14FF02003EFF3118621
:1040500083F31188BFF36F8F294650F8100CFEF7D9
:1040600097F814F80B3C23F0020304F80B3C86F39A
:104070001188BFF36F8F002344F8103C14F80B3CF9
:10408000284623F0140304F80B3CFFF7A6FF20B1E9
:104090002846BDE87040FEF7CBB870BD38B54FF08C
:1040A0002003EFF3118283F31188BFF36F8FFFF7C3
:1040B000BEFF044682F31188BFF36F8FC8B14FF083
:1040C0002003EFF3118583F31188BFF36F8F01464F
:1040D0008068FEF75DF8637B23F00203637385F36A
:1040E0001188BFF36F8F002304F11800A36000F064
:1040F00011F8204638BD10B5029C83730473002369
:104100000424C3734473C0E90633C0E91333C0E920
:10411000161210BD10B54FF02002EFF3118482F398
:104120001188BFF36F8F03683BB1FEF7EBFA0020F5
:1041300084F31188BFF36F8F10BD6FF01500F7E7A0
:1041400010B54FF02003EFF3118483F31188BFF310
:104150006F8FFEF7EDFA84F31188BFF36F8F10BDF8
:1041600070B504460E464FF02003EFF3118583F33C
:104170001188BFF36F8FFEF7DBFA012805DDA0423F
:1041800003DD31462046FCF73DFB85F31188BFF384
:104190006F8F70BD7047FFFFD4C0FF7F010000002C
:1041A00000000000093D000000000000093D000083
:1041B00000000000093D000000000000093D000073
:1041C00000000000093D000000000000050700009D
:1041D00000000000093D000000000000093D000053
:1041E00000000000093D000000000000093D000043
:1041F00000000000093D000000000000093D000033
:1042000000000000093D000000000000093D000022
:1042100000000000093D000000000000093D000012
:1042200000000000093D000000000000093D000002
:1042300000000000093D000000000000093D0000F2
:1042400000000000093D00000000000059070000C8
:1042500000000000093D000000000000093D0000D2
:1042600000000000093D000000000000093D0000C2
:1042700000000000093D000000000000093D0000B2
:1042800000000000093D000000000000093D0000A2
:1042900000000000093D000000000000093D000092
:1042A00000000000093D000000000000093D000082
:1042B00000000000093D000000000000093D000072
:1042C00000000000093D000000000000093D000062
:1042D00000000000093D000000000000093D000052
:1042E00000000000093D000000000000093D000042
:1042F00000000000093D000000000000093D000032
:1043000000000000093D000000000000093D000021
:1043100000000000093D000000000000093D000011
:1043200000000000093D000000000000093D000001
:1043300000000000093D000000000000093D0000F1
:1043400000000000093D000000000000093D0000E1
:1043500000000000093D000000000000093D0000D1
:1043600000000000093D000000000000093D0000C1
:1043700000000000093D000000000000093D0000B1
:1043800000000000093D000000000000093D0000A1
:1043900000000000093D000000000000093D000091
:1043A00000000000093D0000ED470000810600000C
:1043B00000000000ED470000E906000000000000DA
:1043C000A9490000393C000058440000DB470000C8
:1043D0009907000000000000ED470000D51500001F
:1043E00000000000D447000081190000C44600000E
:1043F000ED470000ED19000000000000044B000034
:10440000633F000000000000ED4700006D1E00004B
:1044100000000000ED4700009D28000000000000A3
:10442000DEE61E284CBBCE8F025B0000DEE61E28B7
:10443000EAAC45B8025B0000DEE61E284CBBCE8F1E
:10444000025B0000333C0000973A0000533B000041
:10445000000000007B3A00000000000000000000A7
:104460000001000400000000000000000401080C2E
:10447000170100000701000007010000070100000C
:10448000070100000701000007010000070100000C
:1044900007010000070100000701000007010000FC
:1044A00007010000070100000701000007010000EC
:1044B00007010000070100000701000007010000DC
:1044C00007010000070100000701000007010000CC
:1044D00007010000070100000701000007010000BC
:1044E00007010000070100000701000007010000AC
:1044F0009E49000042010000A5490000050100009E
:10450000AF49000014010000B84900001501000087
:10451000C149000039010000CA490000090100003A
:10452000D54900000A000000E04900000A0100002F
:10453000EA4900000B010000F44900000F010000EF
:10454000FF490000100100000A4A000011010000AC
:10455000154A00000E0100001F4A00002101000062
:10456000284A000022010000314A00002301000017
:104570003A4A000024010000434A000018010000EC
:104580004B4A000028010000534A00002A010000A5
:104590005B4A00003A010000634A00002C01000061
:1045A0006B4A00001C010000744A00001D0100005D
:1045B0007D4A000017010000874A00003101000019
:1045C000934A0000040100001701000017010000D9
:1045D000170100001701000017010000170100007B
:1045E000170100001701000007010000070100008B
:1045F000070100000701000007010000070100009B
:10460000070100000701000007010000070100008A
:10461000070100000701000007010000070100007A
:10462000070100000701000007010000070100006A
:10463000070100000701000007010000070100005A
:104640000701000007010000000000000002000058
:10465000000400000008000000100000000000003E
:10466000073D0000510E0000110E0000E10D00009A
:10467000C10D0000EC130020D4130020E41300202F
:1046800000000000DC130020020000009046000043
:1046900000000000F54A000006000000E0FF0F00E7
:1046A00000000020FD4A000021000000E0FF002083
:1046B000093F00002D3F0000F93E000011180000E6
:1046C000E93E00000080005001000000501400206E
:1046D000A4140020B0140020C8140020C814002026
:1046E000F5FFFFFF436F756C64206E6F74206C6F75
:1046F000636B20706F7765722073617665206D75CE
:1047000074657800FF8FFFFFFF8FFFFFFE8FFFFFB5
:10471000FE8FFFFFFD8FFFFFFC8FFFFFFC8FFFFF72
:1047200043616E277420696E697469616C697A658A
:10473000206D757465782C20776173204E554C4C34
:104740000D0A000043616E277420756E6C6F636BF9
:10475000206D757465782C20776173204E554C4C14
:104760000D0A00004661696C20746F2061637175E9
:10477000697265206D757465780A00004661696C20
:1047800020746F2072656C65617365206D7574654A
:10479000780A00004661696C20746F20696E63724C
:1047A0006561736520504D20636F756E7465720A84
:1047B000000000004661696C20746F2064656372BC
:1047C0006561736520504D20636F756E7465720A64
:1047D00000000000554152545F30007379735F63ED
:1047E0006C6F636B005365637572650909004E6FEA
:1047F0006E2D53656375726509004E6F6E2D53659E
:104800006375726500466C61736820726567696FD5
:104810006E0909446F6D61696E09095065726D69B1
:104820007373696F6E730A002530327520307825F6
:104830003035782030782530357820090025630020
:104840004E6F6E2D7365637572652063616C6C616C
:10485000626C6520726567696F6E203020706C61D4
:1048600063656420696E20666C6173682072656799
:10487000696F6E20256420776974682073697A6592
:104880002025642E0A00436F756C64206E6F7420BF
:10489000696E697469616C697A65207365637572A4
:1048A000652073657276696365732028657272206E
:1048B0002564292E0A005352414D20726567696FA5
:1048C0006E0909446F6D61696E09095065726D6901
:1048D0007373696F6E730A00253032752030782546
:1048E0003035782030782530357809005065726988
:1048F00070686572616C0909446F6D61696E0909C0
:104900005374617475730A002530327520252D3279
:10491000317325730009534B49500A00094552521F
:104920004F520A00094F4B0A0053504D3A204E5344
:1049300020696D61676520617420307825780A00F0
:1049400053504D3A204E53204D5350206174203027
:104950007825780A0053504D3A204E5320726573E3
:10496000657420766563746F7220617420307825D9
:10497000780A0053504D3A2070726570617265205C
:10498000746F206A756D7020746F204E6F6E2D539A
:10499000656375726520696D6167652E0A004E5208
:1049A000465F5030004E52465F434C4F434B004EE3
:1049B00052465F52544330004E52465F5254433188
:1049C000004E52465F4E564D43004E52465F554193
:1049D00052544531004E52465F55415254453200C3
:1049E0004E52465F5457494D32004E52465F535027
:1049F000494D33004E52465F54494D455230004EAA
:104A000052465F54494D455231004E52465F54491B
:104A10004D455232004E52465F5341414443004E91
:104A200052465F50574D30004E52465F50574D3101
:104A3000004E52465F50574D32004E52465F50571F
:104A40004D33004E52465F574454004E52465F4924
:104A50003253004E52465F495043004E52465F5615
:104A60004D43004E52465F465055004E52465F45FC
:104A7000475531004E52465F45475532004E52462B
:104A80005F4450504943004E52465F4750494F548F
:104A90004531004E52465F524547554C41544F52A6
:104AA00053006D757465785F696E69742063616C1D
:104AB0006C65642077697468204E554C4C20706199
:104AC00072616D6574657200436F756C64206E6F02
:104AD0007420616C6C6F63617465206D75746578AA
:104AE000206265666F726520696E697469616C69C0
:104AF0007A696E6700464C4153485F30005352411B
:104B00004D5F300048575F43433331305F300076AC
:104B1000322E312E39392D6E6373312D332D676668
:104B20003733363166353264306537002A2A2A2019
:104B3000426F6F74696E67205A6570687972204F92
:104B400053206275696C64202573202573202A2AFE
:104B50002A0A006D61696E0069646C6500000000DE
:104B60000000000037370000DC14002001000000C6
:104B7000F0140020010000000415002001000000D6
:104B80001815002001000000E33E000000C20100F3
:104B900000010300000000000090D0030814002072
:104BA00008140020401400204C140020441400205D
:104BB0003C14002018140020000000009D2C000070
:104BC000052D0000DD2C0000212D0000E12C00004F
:104BD000880600207C0600208406002000000000DB
:104BE00080060020A8430000000000000000000034
:104BF0000844000000000000000000001444000011
:104C00000000000000000000D84300000000000089
:104C100000000000C0430000444400000C000020DD
:104C2000E4430000B0460000F8130020B443000045
:104C30000000000000000000CC4300000000000065
:104C400000000000FC430000000000000000000025
:104C5000F04300000000000000000000C814002025
:104C6000C814002000000000000000000F00000039
:104C7000DC140020DC140020000000000000000014
:104C80000F000000F0140020F014002000000000CD
:104C9000000000000F000000041500200415002093
:104CA00000000000000000000F00000018150020A8
:104CB0001815002000000000000000000F00000098
:104CC00000000000000000000000000000000000E4
:104CD00000000000000000000000000000000000D4
:104CE00000000000000000000000000000000000C4
:104CF00000000000000000000000000000000000B4
:107FE0007FE97FE9F8F728BE7FE97FE9F8F77CBEF3
:107FF0007FE97FE9FBF746BE0000000000000000BB
:10C00000C88A0220E5E9000019FB0100DDE7000015
:10C01000DDE70000DDE70000DDE70000DDE7000010
:10C02000DDE70000DDE70000DDE7000001E60000DD
:10C03000DDE70000DDE7000051E50000D1DF000092
:10C04000A5E90000A5E90000A5E90000A5E90000B8
:10C05000A5E90000A5E90000A5E90000A5E90000A8
:10C06000A5E90000A5E90000A5E90000A5E9000098
:10C07000A5E90000A5E90000A5E90000A5E9000088
:10C08000A5E90000A5E90000A5E90000A5E9000078
:10C09000A5E90000A5E90000A5E90000A5E9000068
:10C0A000A5E90000A5E90000A5E90000A5E9000058
:10C0B000651101008B040200A5E90000A5E900005C
:10C0C000A5E90000A5E90000A5E90000A5E9000038
:10C0D000A5E90000A5E90000A5E90000A5E9000028
:10C0E000A5E90000A5E9000033050200A5E900006C
:10C0F000A5E90000A5E90000A5E90000A5E9000008
:10C10000A5E90000A5E90000A5E90000A5E90000F7
:10C11000A5E90000A5E90000A5E90000A5E90000E7
:10C12000A5E90000A5E90000A5E90000A5E90000D7
:10C13000A5E90000A5E90000A5E90000A5E90000C7
:10C14000A5E9000000000000000000000000000061
:10C1500000000000000000000000000000000000DF
:10C1600000000000000000000000000000000000CF
:10C1700000000000000000000000000000000000BF
:10C1800000000000000000000000000000000000AF
:10C19000000000000000000000000000000000009F
:10C1A000000000000000000000000000000000008F
:10C1B000000000000000000000000000000000007F
:10C1C000000000000000000000000000000000006F
:10C1D000000000000000000000000000000000005F
:10C1E000000000000000000000000000000000004F
:10C1F000000000000000000000000000000000003F
:10C20000DEE61E284CBBCE8F025B00003C00000027
:10C21000388101000100000000C0000000C00000E3
:10C22000FFFF02910000000000000000000000007D
:10C2300000000000000000000000000053B94AB9EF
:10C24000002908BF00281CBF4FF0FF314FF0FF301E
:10C2500000F07CB9ADF1080C6DE904CE00F006F8F1
:10C26000DDF804E0DDE9022304B070472DE9F04772
:10C270008C46089D04468A46002B4AD18A421746BE
:10C2800062D9B2FA82F64EB1C6F1200E01FA06F377
:10C29000B740B44020FA0EFE4EEA030A4FEA1748B0
:10C2A000230C1FFA87F9BAFBF8FE08FB1EAA0EFB47
:10C2B00009F243EA0A439A420BD9FB180EF1FF3107
:10C2C0002CBF012000209A4202D9002800F02A81C8
:10C2D0008E469A1AA3B2B2FBF8F008FB102200FBBC
:10C2E00009F943EA0244A14507D93C1900F1FF339B
:10C2F00002D2A14500F210811846A4EB090440EADD
:10C300000E4000211DB1F4400023C5E90043BDE803
:10C31000F0878B4208D9002D00F0F2800021C5E99A
:10C32000000C0846BDE8F087B3FA83F100294ED12E
:10C330006345C0F0E880824240F2E5800846002D67
:10C34000E5D0C5E9004AE2E702B9FFDEB2FA82F6BB
:10C35000002E40F099808B1A4FEA124E1FFA82F895
:10C3600001214FEA144CB3FBFEF20EFB123008FB26
:10C3700002F94CEA004CE14508D917EB0C0C02F12C
:10C38000FF3302D2E14500F2CA801A46ACEB090C39
:10C39000A3B2BCFBFEF00EFB10CC08FB00F843EA96
:10C3A0000C44A0450ED93C1900F1FF332CBF4FF0CF
:10C3B000010C4FF0000CA04503D9BCF1000F00F0B8
:10C3C000A8801846A4EB080440EA02409AE7C1F1AD
:10C3D00020048B4002FA01FE0CFA01F6E24020FA3A
:10C3E00004F72CFA04FC00FA01F813433E431F0C37
:10C3F000320C1FFA83F9BCFBF7F007FB10CC00FBF3
:10C4000009FA42EA0C4CE24508D913EB0C0C00F196
:10C41000FF3202D2E24500F289801046ACEB0A0CF2
:10C42000B6B2BCFBF7FA07FB1ACC0AFB09F946EADD
:10C430000C42914506D99A180AF1FF3601D291456E
:10C440007AD8B2464AEA0040A2EB0902A0FB0E6786
:10C45000BA42B446B94602D307D1B04505D2B6EBCD
:10C460000E0C67EB030301389946002D6BD0B8EB37
:10C470000C0362EB090202FA04F4CB40CA4000212B
:10C480001C43C5E9004242E7B740C6F1200201FA69
:10C4900006F3B44021FA02FC4FEA174E20FA02F2EA
:10C4A0001FFA87F8BCFBFEF11A430EFB11CC01FB0F
:10C4B00008F0130C43EA0C4C604507D917EB0C0C41
:10C4C00001F1FF3301D2604533D81946ACEB000CC3
:10C4D00092B2BCFBFEF00EFB10CC00FB08F342EA6C
:10C4E0000C4C634507D917EB0C0C00F1FF3201D25D
:10C4F000634525D81046ACEB030340EA014130E721
:10C500002946284603E7841A6CEB030301209A4668
:10C5100015E702383C4455E702383C44EDE6023A60
:10C52000BC4433E7AEF1020E3B44D2E602389C44F1
:10C5300074E70239BC44C9E7AAF1020A1A4481E748
:10C540000238BC44D7E72946E1E600BF704700BF88
:10C5500070B582B00D4616460DF1070305F050FA8E
:10C56000044628B9284612F0B5FA204602B070BD3C
:10C5700032460249284613F00CFCF6E75436020016
:10C5800038B5054600240E2C0DDD0F2229460B4838
:10C590000EF0E4F90A4BD3F8003413F0010FF9D090
:10C5A0000123184638BD295D04F52C3008300EF003
:10C5B0007BF903460028F4D00134E4E708B0020018
:10C5C00000900340F8B5044603681A4652F8046B1D
:10C5D00002601F795A1D0260B3F8055007330360EB
:10C5E0003946304605F08EFE002802DA064812F081
:10C5F00065FE2B4622683946304605F03FFE23682B
:10C600002B442360F8BD00BFA018020008B5014606
:10C6100004480EF06BF9044BD3F8003413F0010F0B
:10C62000F9D008BD04B002000090034070B582B09C
:10C63000194B1968B1F1FF3F05D0184812F03EFEC2
:10C64000002002B070BD164B1D782946154812F027
:10C6500035FEFF2D04D1144812F030FE0020F0E723
:10C66000124B01930024A54207D8114812F026FE70
:10C670000020FFF7CBFF0120E3E701A8FFF7A2FFAF
:10C68000064638B10B4812F019FE3046FFF7BEFFE0
:10C690000020D6E70134E6E704B00200C01802002B
:10C6A00018B00200001902001419020019B00200AB
:10C6B000741902004819020008B50146014812F039
:10C6C000FDFD08BD3817020000B589B0194812F009
:10C6D000F5FD202269461848FFF73AFF18B11748C0
:10C6E00012F0ECFDFEE7164812F0E8FD2022694644
:10C6F0001448FFF72DFF18B1134812F0DFFDF1E7E2
:10C70000124812F0DBFD6846FFF73AFF18B91048EF
:10C7100012F0D4FDE6E70F4812F0D0FDFFF786FFD8
:10C7200018B10D4812F0CAFDDCE70C4812F0C6FD46
:10C73000D8E700BF581702006817020074170200FC
:10C74000A0170200C4170200CC170200EC17020069
:10C750000018020028180200441802006C18020099
:10C760002DE9F04F83B005460E4692461C46DDF893
:10C7700030B029E0A323454A4549464812F09EFDC2
:10C780004946454812F09AFDA321404812F0CDFDDC
:10C7900032E04FF0000B58E024F003023A444146E7
:10C7A000284612F0B2F9436802681A6003684268CA
:10C7B0005A600023036043600137032FECDD013E24
:10C7C0002346002C4BDB9C10002E4ADB37465AF8E0
:10C7D000268022464146284612F097F9814601AB51
:10C7E00022463146284612F099F9019B1B6823FA2C
:10C7F00000F010F0010FBDD022463146284612F05D
:10C80000BBF9EB6807EB4707BA0013441A1DC9F8D8
:10C8100000209A68C9F804209A68C2F80090C3F80A
:10C8200008902B7C13F0010F03D08BF31188BFF31A
:10C830006F8F2B7C13F0010FABD04FF02003EFF381
:10C84000118B83F31188BFF36F8FD6B12246314627
:10C85000284612F0A1F907460028AED011E0E31CEB
:10C86000B1E70A4CBC2322460C490A4812F026FDC7
:10C870000B4812F023FDBC21204612F056FD4FF06C
:10C88000FF3B584603B0BDE8F08F00BF8C19020093
:10C89000BC190200DC190200FC190200DC3802009D
:10C8A000241A02002DE9F84F81468A4615469B4618
:10C8B0000A9B002B2DDD01270A264FF00008204C93
:10C8C00010E0B5FBF4F051463030C84701374FF067
:10C8D0000108013EB5FBF4F304FB1355194BA3FB10
:10C8E0000434E408092C17D9B8F1000FE9D1AC429F
:10C8F000E7D90A9B9E42ECDCBBF1020FE9D8BBF101
:10C90000010F04D020205146C8470137E1E730200D
:10C91000F9E701230A93CEE7514605F13000C847F5
:10C92000BBF1030F01D0BDE8F88F0A9BDF1B03E0CA
:10C9300051462020C84727467C1E002FF8DCF2E72E
:10C9400000CA9A3BCDCCCCCC014B1860704700BFDD
:10C9500018B2022010B584B0044601900291002163
:10C96000039101A9054812F009FB039B029A934227
:10C9700001DA0022E254039804B010BD4BEF01002D
:10C980004FF02002EFF3118382F31188BFF36F8F12
:10C99000044A0121C2F8401583F31188BFF36F8F59
:10C9A000002070470090034030B108B58001034B70
:10C9B00043F00103984708BD704700BF30170200DD
:10C9C000054B984204D3054B984203D3002070478F
:10C9D000002070470120704794130200D43E0200EB
:10C9E00008B5064B186018B1054B1B68092B00DC15
:10C9F00008BD044810F040FCFAE700BF1401022013
:10CA00000800022094B3022008B5024810F034FC5C
:10CA100008BD00BF94B3022030B587B000220D4995
:10CA20000D4814F04BFC0D4D0024059404940E2386
:10CA30000393029401940094094B4FF44072094906
:10CA4000284610F0DBFD0849284614F0E8FB204694
:10CA500007B030BD09CA00001C000220640002209B
:10CA6000C1D00000C8730220701A020070B50446DD
:10CA70000E46202903D80020054601460EE0134D3E
:10CA80005B232A461249134812F018FC5B21284602
:10CA900012F04BFCEFE781F001011446621C237891
:10CAA0009BB1B54211D2252BF5D00029F5D043F02A
:10CAB0002004613C192CF0D8732B02D001350021E1
:10CAC000EBE70123AB401843F8E770BD401B0200C1
:10CAD000781B0200DC19020008B500F083FD08484D
:10CAE00012F02FFC042334220649074814F0CDFA33
:10CAF000064B074A1A604FF4004000F0EDFF08BDF6
:10CB00001400022008980220480002201CB20220D3
:10CB100077F301002DE9F8431E4B0024D3E8EF8F93
:10CB2000C3E8E24F002A16D0F8E7DFF87C904FF414
:10CB300086734A461849194812F0C0FB4FF48671B3
:10CB4000484612F0F2FB10E07359DB6813B141461E
:10CB5000384698470134124B124A9B1AB4EB231FF4
:10CB600016DA26010F4D7719DFD07B685B79002B31
:10CB7000F0D0002FE8D1DFF83090A3234A460649D1
:10CB8000064812F09BFBA321484612F0CEFBDBE7E0
:10CB9000BDE8F8830C000220B41A0200DC19020080
:10CBA000FC160200EC160200781A0200044BD3E8CF
:10CBB000EF2F0132C3E8E12F0029F8D1704700BF01
:10CBC0000C000220054B064A9B1AB1EBD30F02D290
:10CBD00052F8310070470020704700BFEC16020089
:10CBE0008C160200F8B505460E46184C041B24119D
:10CBF0000134E4B270B16B681C71BDB16B681E602A
:10CC00006B6801225A71124B1B78DBB1104B012269
:10CC10001A70F8BD0F4FC0233A460F490F4812F063
:10CC20004DFBC021384612F080FBE4E7094CF123AC
:10CC300022460949094812F041FBF121204612F031
:10CC400074FBDBE7064810F017FBDFE7EC16020089
:10CC500072720220781A0200B41A0200DC19020073
:10CC600094B3022070B51B4B1B4A9B1A1E11902BCC
:10CC70000ADC1A4BD3E8EF2F511CC3E8E01F002851
:10CC8000F8D12ABB002413E0154C40F2ED132246E4
:10CC90001449154812F012FB40F2ED11204612F033
:10CCA00044FBE6E7042200212846FFF79BFF0134FE
:10CCB000B4420DDA084D05EB04152B7B002BF6D0A2
:10CCC0002301054AD3585B69002BEBD09847E9E76D
:10CCD00070BD00BFFC160200EC160200100002201E
:10CCE000401B0200CC1A0200DC19020010B582B011
:10CCF0000446FFF765FE10B1204602B010BD0022C9
:10CD000001A90E480EF0AEF808B10D4CF4E7019BF6
:10CD10000122D3E8EF1FC3E8E02F0028F9D12D222C
:10CD200021460198043013F034F8019C7E2384F8E6
:10CD30003130002384F832300434DDE7480002202B
:10CD40000C1B020038B1074A904206D3D032904201
:10CD500005D3002070470020704700207047012055
:10CD6000704700BF08980220037A13F0010F00D02B
:10CD700070472DE9F041064612F0B4FB804630467C
:10CD800012F09CFB01464046FFF770FE054604E0AA
:10CD9000012303FA04F425EA04052DB3B5FA85F45A
:10CDA000C4F11F042146304612F08BFB0746FFF703
:10CDB00007FE0028ECD13846FFF7C4FF0028E7D172
